{
  "_format": "hh-sol-artifact-1",
  "contractName": "BlockEstate",
  "sourceName": "contracts/BlockEstate.sol",
  "abi": [
    {
      "inputs": [],
      "stateMutability": "nonpayable",
      "type": "constructor"
    },
    {
      "anonymous": false,
      "inputs": [
        {
          "indexed": false,
          "internalType": "uint256",
          "name": "propertyId",
          "type": "uint256"
        },
        {
          "indexed": false,
          "internalType": "address",
          "name": "owner",
          "type": "address"
        },
        {
          "indexed": false,
          "internalType": "uint256",
          "name": "price",
          "type": "uint256"
        },
        {
          "indexed": false,
          "internalType": "string",
          "name": "location",
          "type": "string"
        }
      ],
      "name": "PropertyRegistered",
      "type": "event"
    },
    {
      "anonymous": false,
      "inputs": [
        {
          "indexed": false,
          "internalType": "uint256",
          "name": "propertyId",
          "type": "uint256"
        },
        {
          "indexed": false,
          "internalType": "address",
          "name": "tenant",
          "type": "address"
        },
        {
          "indexed": false,
          "internalType": "uint256",
          "name": "rentAmount",
          "type": "uint256"
        }
      ],
      "name": "RentalAgreementCreated",
      "type": "event"
    },
    {
      "anonymous": false,
      "inputs": [
        {
          "indexed": false,
          "internalType": "uint256",
          "name": "propertyId",
          "type": "uint256"
        },
        {
          "indexed": false,
          "internalType": "address",
          "name": "buyer",
          "type": "address"
        },
        {
          "indexed": false,
          "internalType": "uint256",
          "name": "shareAmount",
          "type": "uint256"
        }
      ],
      "name": "ShareBought",
      "type": "event"
    },
    {
      "stateMutability": "payable",
      "type": "fallback"
    },
    {
      "inputs": [
        {
          "internalType": "address",
          "name": "user",
          "type": "address"
        }
      ],
      "name": "authorizeUser",
      "outputs": [],
      "stateMutability": "nonpayable",
      "type": "function"
    },
    {
      "inputs": [
        {
          "internalType": "address",
          "name": "",
          "type": "address"
        }
      ],
      "name": "authorizedUsers",
      "outputs": [
        {
          "internalType": "bool",
          "name": "",
          "type": "bool"
        }
      ],
      "stateMutability": "view",
      "type": "function"
    },
    {
      "inputs": [
        {
          "internalType": "uint256",
          "name": "propertyId",
          "type": "uint256"
        },
        {
          "internalType": "uint256",
          "name": "shareAmount",
          "type": "uint256"
        }
      ],
      "name": "buyShares",
      "outputs": [],
      "stateMutability": "payable",
      "type": "function"
    },
    {
      "inputs": [
        {
          "internalType": "uint256",
          "name": "propertyId",
          "type": "uint256"
        }
      ],
      "name": "createRentalAgreement",
      "outputs": [],
      "stateMutability": "payable",
      "type": "function"
    },
    {
      "inputs": [
        {
          "internalType": "address",
          "name": "user",
          "type": "address"
        }
      ],
      "name": "deauthorizeUser",
      "outputs": [],
      "stateMutability": "nonpayable",
      "type": "function"
    },
    {
      "inputs": [
        {
          "internalType": "uint256",
          "name": "propertyId",
          "type": "uint256"
        }
      ],
      "name": "getPropertyDetails",
      "outputs": [
        {
          "internalType": "uint256",
          "name": "price",
          "type": "uint256"
        },
        {
          "internalType": "string",
          "name": "location",
          "type": "string"
        },
        {
          "internalType": "bool",
          "name": "isForSale",
          "type": "bool"
        },
        {
          "internalType": "bool",
          "name": "isForRent",
          "type": "bool"
        },
        {
          "internalType": "uint256",
          "name": "rentAmount",
          "type": "uint256"
        },
        {
          "internalType": "uint256",
          "name": "shares",
          "type": "uint256"
        },
        {
          "internalType": "uint256",
          "name": "sharePrice",
          "type": "uint256"
        }
      ],
      "stateMutability": "view",
      "type": "function"
    },
    {
      "inputs": [
        {
          "internalType": "uint256",
          "name": "propertyId",
          "type": "uint256"
        }
      ],
      "name": "getPropertyShares",
      "outputs": [
        {
          "internalType": "uint256",
          "name": "",
          "type": "uint256"
        }
      ],
      "stateMutability": "view",
      "type": "function"
    },
    {
      "inputs": [
        {
          "internalType": "uint256",
          "name": "propertyId",
          "type": "uint256"
        }
      ],
      "name": "isPropertyForRent",
      "outputs": [
        {
          "internalType": "bool",
          "name": "",
          "type": "bool"
        }
      ],
      "stateMutability": "view",
      "type": "function"
    },
    {
      "inputs": [
        {
          "internalType": "uint256",
          "name": "propertyId",
          "type": "uint256"
        }
      ],
      "name": "isPropertyForSale",
      "outputs": [
        {
          "internalType": "bool",
          "name": "",
          "type": "bool"
        }
      ],
      "stateMutability": "view",
      "type": "function"
    },
    {
      "inputs": [
        {
          "internalType": "uint256",
          "name": "",
          "type": "uint256"
        }
      ],
      "name": "properties",
      "outputs": [
        {
          "internalType": "uint256",
          "name": "id",
          "type": "uint256"
        },
        {
          "internalType": "address",
          "name": "owner",
          "type": "address"
        },
        {
          "internalType": "uint256",
          "name": "price",
          "type": "uint256"
        },
        {
          "internalType": "string",
          "name": "location",
          "type": "string"
        },
        {
          "internalType": "bool",
          "name": "isForSale",
          "type": "bool"
        },
        {
          "internalType": "bool",
          "name": "isForRent",
          "type": "bool"
        },
        {
          "internalType": "uint256",
          "name": "rentAmount",
          "type": "uint256"
        },
        {
          "internalType": "uint256",
          "name": "shares",
          "type": "uint256"
        },
        {
          "internalType": "uint256",
          "name": "sharePrice",
          "type": "uint256"
        }
      ],
      "stateMutability": "view",
      "type": "function"
    },
    {
      "inputs": [],
      "name": "propertyCount",
      "outputs": [
        {
          "internalType": "uint256",
          "name": "",
          "type": "uint256"
        }
      ],
      "stateMutability": "view",
      "type": "function"
    },
    {
      "inputs": [
        {
          "internalType": "uint256",
          "name": "",
          "type": "uint256"
        },
        {
          "internalType": "address",
          "name": "",
          "type": "address"
        }
      ],
      "name": "propertyShares",
      "outputs": [
        {
          "internalType": "uint256",
          "name": "",
          "type": "uint256"
        }
      ],
      "stateMutability": "view",
      "type": "function"
    },
    {
      "inputs": [
        {
          "internalType": "uint256",
          "name": "price",
          "type": "uint256"
        },
        {
          "internalType": "string",
          "name": "location",
          "type": "string"
        },
        {
          "internalType": "bool",
          "name": "isForSale",
          "type": "bool"
        },
        {
          "internalType": "bool",
          "name": "isForRent",
          "type": "bool"
        },
        {
          "internalType": "uint256",
          "name": "rentAmount",
          "type": "uint256"
        },
        {
          "internalType": "uint256",
          "name": "shares",
          "type": "uint256"
        },
        {
          "internalType": "uint256",
          "name": "sharePrice",
          "type": "uint256"
        }
      ],
      "name": "registerProperty",
      "outputs": [],
      "stateMutability": "nonpayable",
      "type": "function"
    },
    {
      "stateMutability": "payable",
      "type": "receive"
    }
  ],
  "bytecode": "0x6080604052348015600f57600080fd5b506001600360003373ffffffffffffffffffffffffffffffffffffffff1673ffffffffffffffffffffffffffffffffffffffff16815260200190815260200160002060006101000a81548160ff021916908315150217905550611fc4806100776000396000f3fe6080604052600436106100c65760003560e01c80638112dceb1161007f578063ce7acb9811610059578063ce7acb98146102dc578063ed4f362414610319578063efcc1fb614610356578063f7b108081461039357610106565b80638112dceb14610279578063beebc5da14610295578063c361a335146102b157610106565b8063126dbe43146101415780631828983a1461018457806338667c5f146101c15780635076e17f146101fe5780635f121b521461022757806367c2a3601461025057610106565b36610106576040517f08c379a00000000000000000000000000000000000000000000000000000000081526004016100fd90610fab565b60405180910390fd5b6040517f08c379a00000000000000000000000000000000000000000000000000000000081526004016101389061103d565b60405180910390fd5b34801561014d57600080fd5b50610168600480360381019061016391906110a7565b6103d8565b60405161017b979695949392919061117d565b60405180910390f35b34801561019057600080fd5b506101ab60048036038101906101a69190611251565b6104db565b6040516101b8919061127e565b60405180910390f35b3480156101cd57600080fd5b506101e860048036038101906101e39190611299565b6104fb565b6040516101f591906112d9565b60405180910390f35b34801561020a57600080fd5b5061022560048036038101906102209190611455565b610520565b005b34801561023357600080fd5b5061024e60048036038101906102499190611251565b61074f565b005b34801561025c57600080fd5b5061027760048036038101906102729190611251565b610818565b005b610293600480360381019061028e91906110a7565b6108e1565b005b6102af60048036038101906102aa9190611513565b610ab5565b005b3480156102bd57600080fd5b506102c6610d60565b6040516102d391906112d9565b60405180910390f35b3480156102e857600080fd5b5061030360048036038101906102fe91906110a7565b610d66565b604051610310919061127e565b60405180910390f35b34801561032557600080fd5b50610340600480360381019061033b91906110a7565b610d92565b60405161034d919061127e565b60405180910390f35b34801561036257600080fd5b5061037d600480360381019061037891906110a7565b610dbe565b60405161038a91906112d9565b60405180910390f35b34801561039f57600080fd5b506103ba60048036038101906103b591906110a7565b610e18565b6040516103cf99989796959493929190611562565b60405180910390f35b600060606000806000806000806000808a815260200190815260200160002090508060020154816003018260040160009054906101000a900460ff168360040160019054906101000a900460ff1684600501548560060154866007015485805461044190611625565b80601f016020809104026020016040519081016040528092919081815260200182805461046d90611625565b80156104ba5780601f1061048f576101008083540402835291602001916104ba565b820191906000526020600020905b81548152906001019060200180831161049d57829003601f168201915b50505050509550975097509750975097509750975050919395979092949650565b60036020528060005260406000206000915054906101000a900460ff1681565b6002602052816000526040600020602052806000526040600020600091509150505481565b600360003373ffffffffffffffffffffffffffffffffffffffff1673ffffffffffffffffffffffffffffffffffffffff16815260200190815260200160002060009054906101000a900460ff166105ac576040517f08c379a00000000000000000000000000000000000000000000000000000000081526004016105a3906116c8565b60405180910390fd5b600160008154809291906105bf90611717565b919050555060405180610120016040528060015481526020013373ffffffffffffffffffffffffffffffffffffffff168152602001888152602001878152602001861515815260200185151581526020018481526020018381526020018281525060008060015481526020019081526020016000206000820151816000015560208201518160010160006101000a81548173ffffffffffffffffffffffffffffffffffffffff021916908373ffffffffffffffffffffffffffffffffffffffff1602179055506040820151816002015560608201518160030190816106a4919061190b565b5060808201518160040160006101000a81548160ff02191690831515021790555060a08201518160040160016101000a81548160ff02191690831515021790555060c0820151816005015560e0820151816006015561010082015181600701559050507febab16d87af113bcb8b2e248548ae10b6135d167bbe20529d320c16a6a8e0c7060015433898960405161073e94939291906119dd565b60405180910390a150505050505050565b3073ffffffffffffffffffffffffffffffffffffffff163373ffffffffffffffffffffffffffffffffffffffff16146107bd576040517f08c379a00000000000000000000000000000000000000000000000000000000081526004016107b490611a9b565b60405180910390fd5b6000600360008373ffffffffffffffffffffffffffffffffffffffff1673ffffffffffffffffffffffffffffffffffffffff16815260200190815260200160002060006101000a81548160ff02191690831515021790555050565b3073ffffffffffffffffffffffffffffffffffffffff163373ffffffffffffffffffffffffffffffffffffffff1614610886576040517f08c379a000000000000000000000000000000000000000000000000000000000815260040161087d90611b2d565b60405180910390fd5b6001600360008373ffffffffffffffffffffffffffffffffffffffff1673ffffffffffffffffffffffffffffffffffffffff16815260200190815260200160002060006101000a81548160ff02191690831515021790555050565b8060008082815260200190815260200160002060040160019054906101000a900460ff16610944576040517f08c379a000000000000000000000000000000000000000000000000000000000815260040161093b90611bbf565b60405180910390fd5b60008060008481526020019081526020016000209050806005015434146109a0576040517f08c379a000000000000000000000000000000000000000000000000000000000815260040161099790611c2b565b60405180910390fd5b60008160010160009054906101000a900473ffffffffffffffffffffffffffffffffffffffff1673ffffffffffffffffffffffffffffffffffffffff16346040516109ea90611c7c565b60006040518083038185875af1925050503d8060008114610a27576040519150601f19603f3d011682016040523d82523d6000602084013e610a2c565b606091505b5050905080610a70576040517f08c379a0000000000000000000000000000000000000000000000000000000008152600401610a6790611cdd565b60405180910390fd5b7fb8aaed862159ce3be65b1d5e636490c867c56f394311739b89c1b01882729c4b84338460050154604051610aa793929190611cfd565b60405180910390a150505050565b8160008082815260200190815260200160002060040160009054906101000a900460ff16610b18576040517f08c379a0000000000000000000000000000000000000000000000000000000008152600401610b0f90611d80565b60405180910390fd5b600080600085815260200190815260200160002090506000816007015484610b409190611da0565b9050803414610b84576040517f08c379a0000000000000000000000000000000000000000000000000000000008152600401610b7b90611e2e565b60405180910390fd5b8382600601541015610bcb576040517f08c379a0000000000000000000000000000000000000000000000000000000008152600401610bc290611e9a565b60405180910390fd5b60008260010160009054906101000a900473ffffffffffffffffffffffffffffffffffffffff1673ffffffffffffffffffffffffffffffffffffffff1634604051610c1590611c7c565b60006040518083038185875af1925050503d8060008114610c52576040519150601f19603f3d011682016040523d82523d6000602084013e610c57565b606091505b5050905080610c9b576040517f08c379a0000000000000000000000000000000000000000000000000000000008152600401610c9290611f06565b60405180910390fd5b846002600088815260200190815260200160002060003373ffffffffffffffffffffffffffffffffffffffff1673ffffffffffffffffffffffffffffffffffffffff1681526020019081526020016000206000828254610cfb9190611f26565b9250508190555084836006016000828254610d169190611f5a565b925050819055507f95888b12e209664bf159ee71dc25314a800953f853896cb267c87456ffeb5fbf863387604051610d5093929190611cfd565b60405180910390a1505050505050565b60015481565b600080600083815260200190815260200160002060040160009054906101000a900460ff169050919050565b600080600083815260200190815260200160002060040160019054906101000a900460ff169050919050565b60006002600083815260200190815260200160002060003373ffffffffffffffffffffffffffffffffffffffff1673ffffffffffffffffffffffffffffffffffffffff168152602001908152602001600020549050919050565b60006020528060005260406000206000915090508060000154908060010160009054906101000a900473ffffffffffffffffffffffffffffffffffffffff1690806002015490806003018054610e6d90611625565b80601f0160208091040260200160405190810160405280929190818152602001828054610e9990611625565b8015610ee65780601f10610ebb57610100808354040283529160200191610ee6565b820191906000526020600020905b815481529060010190602001808311610ec957829003601f168201915b5050505050908060040160009054906101000a900460ff16908060040160019054906101000a900460ff16908060050154908060060154908060070154905089565b600082825260208201905092915050565b7f446972656374204574686572207472616e7366657273206e6f7420616c6c6f7760008201527f6564000000000000000000000000000000000000000000000000000000000000602082015250565b6000610f95602283610f28565b9150610fa082610f39565b604082019050919050565b60006020820190508181036000830152610fc481610f88565b9050919050565b7f46616c6c6261636b2066756e6374696f6e207472696767657265642c2072657660008201527f6572742063616c6c000000000000000000000000000000000000000000000000602082015250565b6000611027602883610f28565b915061103282610fcb565b604082019050919050565b600060208201905081810360008301526110568161101a565b9050919050565b6000604051905090565b600080fd5b600080fd5b6000819050919050565b61108481611071565b811461108f57600080fd5b50565b6000813590506110a18161107b565b92915050565b6000602082840312156110bd576110bc611067565b5b60006110cb84828501611092565b91505092915050565b6110dd81611071565b82525050565b600081519050919050565b60005b8381101561110c5780820151818401526020810190506110f1565b60008484015250505050565b6000601f19601f8301169050919050565b6000611134826110e3565b61113e8185610f28565b935061114e8185602086016110ee565b61115781611118565b840191505092915050565b60008115159050919050565b61117781611162565b82525050565b600060e082019050611192600083018a6110d4565b81810360208301526111a48189611129565b90506111b3604083018861116e565b6111c0606083018761116e565b6111cd60808301866110d4565b6111da60a08301856110d4565b6111e760c08301846110d4565b98975050505050505050565b600073ffffffffffffffffffffffffffffffffffffffff82169050919050565b600061121e826111f3565b9050919050565b61122e81611213565b811461123957600080fd5b50565b60008135905061124b81611225565b92915050565b60006020828403121561126757611266611067565b5b60006112758482850161123c565b91505092915050565b6000602082019050611293600083018461116e565b92915050565b600080604083850312156112b0576112af611067565b5b60006112be85828601611092565b92505060206112cf8582860161123c565b9150509250929050565b60006020820190506112ee60008301846110d4565b92915050565b600080fd5b600080fd5b7f4e487b7100000000000000000000000000000000000000000000000000000000600052604160045260246000fd5b61133682611118565b810181811067ffffffffffffffff82111715611355576113546112fe565b5b80604052505050565b600061136861105d565b9050611374828261132d565b919050565b600067ffffffffffffffff821115611394576113936112fe565b5b61139d82611118565b9050602081019050919050565b82818337600083830152505050565b60006113cc6113c784611379565b61135e565b9050828152602081018484840111156113e8576113e76112f9565b5b6113f38482856113aa565b509392505050565b600082601f8301126114105761140f6112f4565b5b81356114208482602086016113b9565b91505092915050565b61143281611162565b811461143d57600080fd5b50565b60008135905061144f81611429565b92915050565b600080600080600080600060e0888a03121561147457611473611067565b5b60006114828a828b01611092565b975050602088013567ffffffffffffffff8111156114a3576114a261106c565b5b6114af8a828b016113fb565b96505060406114c08a828b01611440565b95505060606114d18a828b01611440565b94505060806114e28a828b01611092565b93505060a06114f38a828b01611092565b92505060c06115048a828b01611092565b91505092959891949750929550565b6000806040838503121561152a57611529611067565b5b600061153885828601611092565b925050602061154985828601611092565b9150509250929050565b61155c81611213565b82525050565b600061012082019050611578600083018c6110d4565b611585602083018b611553565b611592604083018a6110d4565b81810360608301526115a48189611129565b90506115b3608083018861116e565b6115c060a083018761116e565b6115cd60c08301866110d4565b6115da60e08301856110d4565b6115e86101008301846110d4565b9a9950505050505050505050565b7f4e487b7100000000000000000000000000000000000000000000000000000000600052602260045260246000fd5b6000600282049050600182168061163d57607f821691505b6020821081036116505761164f6115f6565b5b50919050565b7f4f6e6c7920617574686f72697a65642075736572732063616e2072656769737460008201527f65722070726f7065727469657300000000000000000000000000000000000000602082015250565b60006116b2602d83610f28565b91506116bd82611656565b604082019050919050565b600060208201905081810360008301526116e1816116a5565b9050919050565b7f4e487b7100000000000000000000000000000000000000000000000000000000600052601160045260246000fd5b600061172282611071565b91507fffffffffffffffffffffffffffffffffffffffffffffffffffffffffffffffff8203611754576117536116e8565b5b600182019050919050565b60008190508160005260206000209050919050565b60006020601f8301049050919050565b600082821b905092915050565b6000600883026117c17fffffffffffffffffffffffffffffffffffffffffffffffffffffffffffffffff82611784565b6117cb8683611784565b95508019841693508086168417925050509392505050565b6000819050919050565b60006118086118036117fe84611071565b6117e3565b611071565b9050919050565b6000819050919050565b611822836117ed565b61183661182e8261180f565b848454611791565b825550505050565b600090565b61184b61183e565b611856818484611819565b505050565b5b8181101561187a5761186f600082611843565b60018101905061185c565b5050565b601f8211156118bf576118908161175f565b61189984611774565b810160208510156118a8578190505b6118bc6118b485611774565b83018261185b565b50505b505050565b600082821c905092915050565b60006118e2600019846008026118c4565b1980831691505092915050565b60006118fb83836118d1565b9150826002028217905092915050565b611914826110e3565b67ffffffffffffffff81111561192d5761192c6112fe565b5b6119378254611625565b61194282828561187e565b600060209050601f8311600181146119755760008415611963578287015190505b61196d85826118ef565b8655506119d5565b601f1984166119838661175f565b60005b828110156119ab57848901518255600182019150602085019450602081019050611986565b868310156119c857848901516119c4601f8916826118d1565b8355505b6001600288020188555050505b505050505050565b60006080820190506119f260008301876110d4565b6119ff6020830186611553565b611a0c60408301856110d4565b8181036060830152611a1e8184611129565b905095945050505050565b7f4f6e6c792074686520636f6e74726163742063616e206465617574686f72697a60008201527f6520757365727300000000000000000000000000000000000000000000000000602082015250565b6000611a85602783610f28565b9150611a9082611a29565b604082019050919050565b60006020820190508181036000830152611ab481611a78565b9050919050565b7f4f6e6c792074686520636f6e74726163742063616e20617574686f72697a652060008201527f7573657273000000000000000000000000000000000000000000000000000000602082015250565b6000611b17602583610f28565b9150611b2282611abb565b604082019050919050565b60006020820190508181036000830152611b4681611b0a565b9050919050565b7f546869732070726f7065727479206973206e6f7420617661696c61626c65206660008201527f6f722072656e7400000000000000000000000000000000000000000000000000602082015250565b6000611ba9602783610f28565b9150611bb482611b4d565b604082019050919050565b60006020820190508181036000830152611bd881611b9c565b9050919050565b7f496e73756666696369656e742072656e74207061796d656e7400000000000000600082015250565b6000611c15601983610f28565b9150611c2082611bdf565b602082019050919050565b60006020820190508181036000830152611c4481611c08565b9050919050565b600081905092915050565b50565b6000611c66600083611c4b565b9150611c7182611c56565b600082019050919050565b6000611c8782611c59565b9150819050919050565b7f52656e74207472616e73666572206661696c6564000000000000000000000000600082015250565b6000611cc7601483610f28565b9150611cd282611c91565b602082019050919050565b60006020820190508181036000830152611cf681611cba565b9050919050565b6000606082019050611d1260008301866110d4565b611d1f6020830185611553565b611d2c60408301846110d4565b949350505050565b7f546869732070726f7065727479206973206e6f7420666f722073616c65000000600082015250565b6000611d6a601d83610f28565b9150611d7582611d34565b602082019050919050565b60006020820190508181036000830152611d9981611d5d565b9050919050565b6000611dab82611071565b9150611db683611071565b9250828202611dc481611071565b91508282048414831517611ddb57611dda6116e8565b5b5092915050565b7f496e636f72726563742045746865722073656e74000000000000000000000000600082015250565b6000611e18601483610f28565b9150611e2382611de2565b602082019050919050565b60006020820190508181036000830152611e4781611e0b565b9050919050565b7f4e6f7420656e6f7567682073686172657320617661696c61626c650000000000600082015250565b6000611e84601b83610f28565b9150611e8f82611e4e565b602082019050919050565b60006020820190508181036000830152611eb381611e77565b9050919050565b7f5368617265207075726368617365206661696c65640000000000000000000000600082015250565b6000611ef0601583610f28565b9150611efb82611eba565b602082019050919050565b60006020820190508181036000830152611f1f81611ee3565b9050919050565b6000611f3182611071565b9150611f3c83611071565b9250828201905080821115611f5457611f536116e8565b5b92915050565b6000611f6582611071565b9150611f7083611071565b9250828203905081811115611f8857611f876116e8565b5b9291505056fea2646970667358221220f267ec70509e6cc31c57d5e4ae5e9e5a1e16a76083ac6b03df8a25717a95d5cc64736f6c634300081c0033",
  "linkReferences": {},
  "deployedLinkReferences": {}
}